{
  "transactions": [
    {
      "hash": "0x99a02af0db15074e0fb84531dcd1e22fffd4bac443e8d4ef1aa63c3d428154cc",
      "transactionType": "CALL",
      "contractName": null,
      "contractAddress": "0x8de3c1c4503400280de37f65fd398cfd5e5100b6",
      "function": "safeMint(address,string)",
      "arguments": [
        "0x3B87223646ACc9A148BA437f21b5ce4c9A35F79a",
        "https://i.imgur.com/90D5G01.jpg"
      ],
      "transaction": {
        "from": "0x3b87223646acc9a148ba437f21b5ce4c9a35f79a",
        "to": "0x8de3c1c4503400280de37f65fd398cfd5e5100b6",
        "gas": "0x1d399",
        "value": "0x0",
        "input": "0xd204c45e0000000000000000000000003b87223646acc9a148ba437f21b5ce4c9a35f79a0000000000000000000000000000000000000000000000000000000000000040000000000000000000000000000000000000000000000000000000000000001f68747470733a2f2f692e696d6775722e636f6d2f393044354730312e6a706700",
        "nonce": "0x18",
        "chainId": "0x1f"
      },
      "additionalContracts": [],
      "isFixedGasLimit": false
    },
    {
      "hash": "0x7a27e8e16810d9feb321d6d3ec6ff4d6b2dd9e9143f1c7678847103bc2978e94",
      "transactionType": "CALL",
      "contractName": null,
      "contractAddress": "0x8de3c1c4503400280de37f65fd398cfd5e5100b6",
      "function": "safeMint(address,string)",
      "arguments": [
        "0x3B87223646ACc9A148BA437f21b5ce4c9A35F79a",
        "https://i.imgur.com/90D5G01.jpg"
      ],
      "transaction": {
        "from": "0x3b87223646acc9a148ba437f21b5ce4c9a35f79a",
        "to": "0x8de3c1c4503400280de37f65fd398cfd5e5100b6",
        "gas": "0x1d399",
        "value": "0x0",
        "input": "0xd204c45e0000000000000000000000003b87223646acc9a148ba437f21b5ce4c9a35f79a0000000000000000000000000000000000000000000000000000000000000040000000000000000000000000000000000000000000000000000000000000001f68747470733a2f2f692e696d6775722e636f6d2f393044354730312e6a706700",
        "nonce": "0x19",
        "chainId": "0x1f"
      },
      "additionalContracts": [],
      "isFixedGasLimit": false
    },
    {
      "hash": "0x39643cded37baf6e3472118533b00a8dfa96de373862de941c80551a898f7d77",
      "transactionType": "CALL",
      "contractName": null,
      "contractAddress": "0x8de3c1c4503400280de37f65fd398cfd5e5100b6",
      "function": "safeMint(address,string)",
      "arguments": [
        "0x3B87223646ACc9A148BA437f21b5ce4c9A35F79a",
        "https://i.imgur.com/90D5G01.jpg"
      ],
      "transaction": {
        "from": "0x3b87223646acc9a148ba437f21b5ce4c9a35f79a",
        "to": "0x8de3c1c4503400280de37f65fd398cfd5e5100b6",
        "gas": "0x1d399",
        "value": "0x0",
        "input": "0xd204c45e0000000000000000000000003b87223646acc9a148ba437f21b5ce4c9a35f79a0000000000000000000000000000000000000000000000000000000000000040000000000000000000000000000000000000000000000000000000000000001f68747470733a2f2f692e696d6775722e636f6d2f393044354730312e6a706700",
        "nonce": "0x1a",
        "chainId": "0x1f"
      },
      "additionalContracts": [],
      "isFixedGasLimit": false
    },
    {
      "hash": "0x34ceb7bfea96a32c49ef24da23376862189e835d70b9bc8a9a3c4e14b55a37c5",
      "transactionType": "CALL",
      "contractName": null,
      "contractAddress": "0x8de3c1c4503400280de37f65fd398cfd5e5100b6",
      "function": "safeMint(address,string)",
      "arguments": [
        "0x3B87223646ACc9A148BA437f21b5ce4c9A35F79a",
        "https://i.imgur.com/90D5G01.jpg"
      ],
      "transaction": {
        "from": "0x3b87223646acc9a148ba437f21b5ce4c9a35f79a",
        "to": "0x8de3c1c4503400280de37f65fd398cfd5e5100b6",
        "gas": "0x1d399",
        "value": "0x0",
        "input": "0xd204c45e0000000000000000000000003b87223646acc9a148ba437f21b5ce4c9a35f79a0000000000000000000000000000000000000000000000000000000000000040000000000000000000000000000000000000000000000000000000000000001f68747470733a2f2f692e696d6775722e636f6d2f393044354730312e6a706700",
        "nonce": "0x1b",
        "chainId": "0x1f"
      },
      "additionalContracts": [],
      "isFixedGasLimit": false
    },
    {
      "hash": "0x2a44aa54f9ba1a5148d4670776638c140a96afe1d548e6a7a53c135bc3149812",
      "transactionType": "CALL",
      "contractName": null,
      "contractAddress": "0x8de3c1c4503400280de37f65fd398cfd5e5100b6",
      "function": "safeMint(address,string)",
      "arguments": [
        "0x3B87223646ACc9A148BA437f21b5ce4c9A35F79a",
        "https://i.imgur.com/90D5G01.jpg"
      ],
      "transaction": {
        "from": "0x3b87223646acc9a148ba437f21b5ce4c9a35f79a",
        "to": "0x8de3c1c4503400280de37f65fd398cfd5e5100b6",
        "gas": "0x1d399",
        "value": "0x0",
        "input": "0xd204c45e0000000000000000000000003b87223646acc9a148ba437f21b5ce4c9a35f79a0000000000000000000000000000000000000000000000000000000000000040000000000000000000000000000000000000000000000000000000000000001f68747470733a2f2f692e696d6775722e636f6d2f393044354730312e6a706700",
        "nonce": "0x1c",
        "chainId": "0x1f"
      },
      "additionalContracts": [],
      "isFixedGasLimit": false
    },
    {
      "hash": "0xcbecb5cf255503bba1d5fdbb802f27702a531035613aa7128a769121a3f24c00",
      "transactionType": "CALL",
      "contractName": null,
      "contractAddress": "0x8de3c1c4503400280de37f65fd398cfd5e5100b6",
      "function": "safeMint(address,string)",
      "arguments": [
        "0x3B87223646ACc9A148BA437f21b5ce4c9A35F79a",
        "https://i.imgur.com/90D5G01.jpg"
      ],
      "transaction": {
        "from": "0x3b87223646acc9a148ba437f21b5ce4c9a35f79a",
        "to": "0x8de3c1c4503400280de37f65fd398cfd5e5100b6",
        "gas": "0x1d399",
        "value": "0x0",
        "input": "0xd204c45e0000000000000000000000003b87223646acc9a148ba437f21b5ce4c9a35f79a0000000000000000000000000000000000000000000000000000000000000040000000000000000000000000000000000000000000000000000000000000001f68747470733a2f2f692e696d6775722e636f6d2f393044354730312e6a706700",
        "nonce": "0x1d",
        "chainId": "0x1f"
      },
      "additionalContracts": [],
      "isFixedGasLimit": false
    },
    {
      "hash": "0x18c7e253e54a0662edf372f5e0571bb42928f058992c6ddb586b28e3c548beba",
      "transactionType": "CALL",
      "contractName": null,
      "contractAddress": "0x8de3c1c4503400280de37f65fd398cfd5e5100b6",
      "function": "safeMint(address,string)",
      "arguments": [
        "0x3B87223646ACc9A148BA437f21b5ce4c9A35F79a",
        "https://i.imgur.com/90D5G01.jpg"
      ],
      "transaction": {
        "from": "0x3b87223646acc9a148ba437f21b5ce4c9a35f79a",
        "to": "0x8de3c1c4503400280de37f65fd398cfd5e5100b6",
        "gas": "0x1d399",
        "value": "0x0",
        "input": "0xd204c45e0000000000000000000000003b87223646acc9a148ba437f21b5ce4c9a35f79a0000000000000000000000000000000000000000000000000000000000000040000000000000000000000000000000000000000000000000000000000000001f68747470733a2f2f692e696d6775722e636f6d2f393044354730312e6a706700",
        "nonce": "0x1e",
        "chainId": "0x1f"
      },
      "additionalContracts": [],
      "isFixedGasLimit": false
    },
    {
      "hash": "0x60f6e9e6d665380710fd7983558cd9f1164729c0b0c9b1e1a709a5700ad73e15",
      "transactionType": "CALL",
      "contractName": null,
      "contractAddress": "0x8de3c1c4503400280de37f65fd398cfd5e5100b6",
      "function": "safeMint(address,string)",
      "arguments": [
        "0x3B87223646ACc9A148BA437f21b5ce4c9A35F79a",
        "https://i.imgur.com/90D5G01.jpg"
      ],
      "transaction": {
        "from": "0x3b87223646acc9a148ba437f21b5ce4c9a35f79a",
        "to": "0x8de3c1c4503400280de37f65fd398cfd5e5100b6",
        "gas": "0x1d399",
        "value": "0x0",
        "input": "0xd204c45e0000000000000000000000003b87223646acc9a148ba437f21b5ce4c9a35f79a0000000000000000000000000000000000000000000000000000000000000040000000000000000000000000000000000000000000000000000000000000001f68747470733a2f2f692e696d6775722e636f6d2f393044354730312e6a706700",
        "nonce": "0x1f",
        "chainId": "0x1f"
      },
      "additionalContracts": [],
      "isFixedGasLimit": false
    },
    {
      "hash": "0xccc0362dc35bd312ed8f7c01bb1d7a08849dcd36d835bb5fe0e7f906d72db3b1",
      "transactionType": "CALL",
      "contractName": null,
      "contractAddress": "0x8de3c1c4503400280de37f65fd398cfd5e5100b6",
      "function": "safeMint(address,string)",
      "arguments": [
        "0x3B87223646ACc9A148BA437f21b5ce4c9A35F79a",
        "https://i.imgur.com/90D5G01.jpg"
      ],
      "transaction": {
        "from": "0x3b87223646acc9a148ba437f21b5ce4c9a35f79a",
        "to": "0x8de3c1c4503400280de37f65fd398cfd5e5100b6",
        "gas": "0x1d399",
        "value": "0x0",
        "input": "0xd204c45e0000000000000000000000003b87223646acc9a148ba437f21b5ce4c9a35f79a0000000000000000000000000000000000000000000000000000000000000040000000000000000000000000000000000000000000000000000000000000001f68747470733a2f2f692e696d6775722e636f6d2f393044354730312e6a706700",
        "nonce": "0x20",
        "chainId": "0x1f"
      },
      "additionalContracts": [],
      "isFixedGasLimit": false
    },
    {
      "hash": "0x14831433302b7bcdd5d40f5bdf831433c8476799445b3315bad1db761034f9bf",
      "transactionType": "CALL",
      "contractName": null,
      "contractAddress": "0x8de3c1c4503400280de37f65fd398cfd5e5100b6",
      "function": "safeMint(address,string)",
      "arguments": [
        "0x3B87223646ACc9A148BA437f21b5ce4c9A35F79a",
        "https://i.imgur.com/90D5G01.jpg"
      ],
      "transaction": {
        "from": "0x3b87223646acc9a148ba437f21b5ce4c9a35f79a",
        "to": "0x8de3c1c4503400280de37f65fd398cfd5e5100b6",
        "gas": "0x1d399",
        "value": "0x0",
        "input": "0xd204c45e0000000000000000000000003b87223646acc9a148ba437f21b5ce4c9a35f79a0000000000000000000000000000000000000000000000000000000000000040000000000000000000000000000000000000000000000000000000000000001f68747470733a2f2f692e696d6775722e636f6d2f393044354730312e6a706700",
        "nonce": "0x21",
        "chainId": "0x1f"
      },
      "additionalContracts": [],
      "isFixedGasLimit": false
    },
    {
      "hash": "0x7d43400673dc04952ca7eb88309f79ceebf43415ef83135b5b334697628ea3ed",
      "transactionType": "CALL",
      "contractName": null,
      "contractAddress": "0x8de3c1c4503400280de37f65fd398cfd5e5100b6",
      "function": "safeMint(address,string)",
      "arguments": [
        "0x3B87223646ACc9A148BA437f21b5ce4c9A35F79a",
        "https://i.imgur.com/90D5G01.jpg"
      ],
      "transaction": {
        "from": "0x3b87223646acc9a148ba437f21b5ce4c9a35f79a",
        "to": "0x8de3c1c4503400280de37f65fd398cfd5e5100b6",
        "gas": "0x1d399",
        "value": "0x0",
        "input": "0xd204c45e0000000000000000000000003b87223646acc9a148ba437f21b5ce4c9a35f79a0000000000000000000000000000000000000000000000000000000000000040000000000000000000000000000000000000000000000000000000000000001f68747470733a2f2f692e696d6775722e636f6d2f393044354730312e6a706700",
        "nonce": "0x22",
        "chainId": "0x1f"
      },
      "additionalContracts": [],
      "isFixedGasLimit": false
    }
  ],
  "receipts": [],
  "libraries": [],
  "pending": [
    "0x99a02af0db15074e0fb84531dcd1e22fffd4bac443e8d4ef1aa63c3d428154cc",
    "0x7a27e8e16810d9feb321d6d3ec6ff4d6b2dd9e9143f1c7678847103bc2978e94",
    "0x39643cded37baf6e3472118533b00a8dfa96de373862de941c80551a898f7d77",
    "0x34ceb7bfea96a32c49ef24da23376862189e835d70b9bc8a9a3c4e14b55a37c5",
    "0x2a44aa54f9ba1a5148d4670776638c140a96afe1d548e6a7a53c135bc3149812",
    "0xcbecb5cf255503bba1d5fdbb802f27702a531035613aa7128a769121a3f24c00",
    "0x18c7e253e54a0662edf372f5e0571bb42928f058992c6ddb586b28e3c548beba",
    "0x60f6e9e6d665380710fd7983558cd9f1164729c0b0c9b1e1a709a5700ad73e15",
    "0xccc0362dc35bd312ed8f7c01bb1d7a08849dcd36d835bb5fe0e7f906d72db3b1",
    "0x14831433302b7bcdd5d40f5bdf831433c8476799445b3315bad1db761034f9bf",
    "0x7d43400673dc04952ca7eb88309f79ceebf43415ef83135b5b334697628ea3ed"
  ],
  "returns": {},
  "timestamp": 1725732810,
  "chain": 31,
  "commit": "992a359"
}